{
  "transactions": [
    {
      "hash": "0x176defee48630b5601a28486fbfcc3985e63228881bca3f900baeb2890f9ad11",
      "transactionType": "CALL",
      "contractName": null,
      "contractAddress": "0x7e069926a4cf1d6eaf6fa8823c91b356cdcc1b03",
      "function": "approveAttestor(address)",
      "arguments": [
        "0x8e4A6f0866904D9edB6bb5e2CD56199EAfadEEA6"
      ],
      "transaction": {
        "from": "0x8e4a6f0866904d9edb6bb5e2cd56199eafadeea6",
        "to": "0x7e069926a4cf1d6eaf6fa8823c91b356cdcc1b03",
        "value": "0x0",
        "input": "0x28582b9d0000000000000000000000008e4a6f0866904d9edb6bb5e2cd56199eafadeea6",
        "nonce": "0x16",
        "chainId": "0x14a34"
      },
      "additionalContracts": [],
      "isFixedGasLimit": false
    },
    {
      "hash": "0x416b7827b081233dc13ac1267f91ff01120d24d504a8be71b2586087d6861cac",
      "transactionType": "CALL",
      "contractName": null,
      "contractAddress": "0x4200000000000000000000000000000000000020",
      "function": "register(string,address,bool)",
      "arguments": [
        "bool kycPassed,bool amlClear,uint8 tier",
        "0x0000000000000000000000000000000000000000",
        "true"
      ],
      "transaction": {
        "from": "0x8e4a6f0866904d9edb6bb5e2cd56199eafadeea6",
        "to": "0x4200000000000000000000000000000000000020",
        "value": "0x0",
        "input": "0x60d7a2780000000000000000000000000000000000000000000000000000000000000060000000000000000000000000000000000000000000000000000000000000000000000000000000000000000000000000000000000000000000000000000000010000000000000000000000000000000000000000000000000000000000000027626f6f6c206b79635061737365642c626f6f6c20616d6c436c6561722c75696e7438207469657200000000000000000000000000000000000000000000000000",
        "nonce": "0x17",
        "chainId": "0x14a34"
      },
      "additionalContracts": [],
      "isFixedGasLimit": false
    },
    {
      "hash": "0xda3cbd42ae7f9b02cd38c2440c264d559105643f04a7e6b2a462d6cb99cddd62",
      "transactionType": "CALL",
      "contractName": null,
      "contractAddress": "0x7e069926a4cf1d6eaf6fa8823c91b356cdcc1b03",
      "function": "updateSchema(bytes32)",
      "arguments": [
        "0x8e3fcc4eec08f17a5655bdb07d4a9fb55e961420591855e383bed48885d4e9da"
      ],
      "transaction": {
        "from": "0x8e4a6f0866904d9edb6bb5e2cd56199eafadeea6",
        "to": "0x7e069926a4cf1d6eaf6fa8823c91b356cdcc1b03",
        "value": "0x0",
        "input": "0x58ff22328e3fcc4eec08f17a5655bdb07d4a9fb55e961420591855e383bed48885d4e9da",
        "nonce": "0x18",
        "chainId": "0x14a34"
      },
      "additionalContracts": [],
      "isFixedGasLimit": false
    },
    {
      "hash": "0x5ac2d24103b34cbf9d477bc75c36e33bf1969c7084a407a3aff40495947074c1",
      "transactionType": "CALL",
      "contractName": null,
      "contractAddress": "0x4200000000000000000000000000000000000021",
      "function": "attest((bytes32,(address,uint64,bool,bytes32,bytes,uint256)))",
      "arguments": [
        "(0x8e3fcc4eec08f17a5655bdb07d4a9fb55e961420591855e383bed48885d4e9da, (0x8e4A6f0866904D9edB6bb5e2CD56199EAfadEEA6, 0, true, 0x0000000000000000000000000000000000000000000000000000000000000000, 0x000000000000000000000000000000000000000000000000000000000000000100000000000000000000000000000000000000000000000000000000000000010000000000000000000000000000000000000000000000000000000000000001, 0))"
      ],
      "transaction": {
        "from": "0x8e4a6f0866904d9edb6bb5e2cd56199eafadeea6",
        "to": "0x4200000000000000000000000000000000000021",
        "value": "0x0",
        "input": "0xf17325e700000000000000000000000000000000000000000000000000000000000000208e3fcc4eec08f17a5655bdb07d4a9fb55e961420591855e383bed48885d4e9da00000000000000000000000000000000000000000000000000000000000000400000000000000000000000008e4a6f0866904d9edb6bb5e2cd56199eafadeea600000000000000000000000000000000000000000000000000000000000000000000000000000000000000000000000000000000000000000000000000000001000000000000000000000000000000000000000000000000000000000000000000000000000000000000000000000000000000000000000000000000000000c000000000000000000000000000000000000000000000000000000000000000000000000000000000000000000000000000000000000000000000000000000060000000000000000000000000000000000000000000000000000000000000000100000000000000000000000000000000000000000000000000000000000000010000000000000000000000000000000000000000000000000000000000000001",
        "nonce": "0x19",
        "chainId": "0x14a34"
      },
      "additionalContracts": [],
      "isFixedGasLimit": false
    },
    {
      "hash": null,
      "transactionType": "CALL",
      "contractName": null,
      "contractAddress": "0x7e069926a4cf1d6eaf6fa8823c91b356cdcc1b03",
      "function": "registerAttestation(bytes32)",
      "arguments": [
        "0xf56ca6c3ea425d1591951157d66d8ce6c84c042a0374a71836ffe262cd5e4c3d"
      ],
      "transaction": {
        "from": "0x8e4a6f0866904d9edb6bb5e2cd56199eafadeea6",
        "to": "0x7e069926a4cf1d6eaf6fa8823c91b356cdcc1b03",
        "value": "0x0",
        "input": "0x5a2d7f50f56ca6c3ea425d1591951157d66d8ce6c84c042a0374a71836ffe262cd5e4c3d",
        "nonce": "0x1a",
        "chainId": "0x14a34"
      },
      "additionalContracts": [],
      "isFixedGasLimit": false
    },
    {
      "hash": null,
      "transactionType": "CALL",
      "contractName": null,
      "contractAddress": "0x914bd84678abc7ace192ba0f27ac7a5e5920e218",
      "function": "mint(address,uint256)",
      "arguments": [
        "0x8e4A6f0866904D9edB6bb5e2CD56199EAfadEEA6",
        "10000000000"
      ],
      "transaction": {
        "from": "0x8e4a6f0866904d9edb6bb5e2cd56199eafadeea6",
        "to": "0x914bd84678abc7ace192ba0f27ac7a5e5920e218",
        "value": "0x0",
        "input": "0x40c10f190000000000000000000000008e4a6f0866904d9edb6bb5e2cd56199eafadeea600000000000000000000000000000000000000000000000000000002540be400",
        "nonce": "0x1b",
        "chainId": "0x14a34"
      },
      "additionalContracts": [],
      "isFixedGasLimit": false
    },
    {
      "hash": null,
      "transactionType": "CALL",
      "contractName": null,
      "contractAddress": "0x914bd84678abc7ace192ba0f27ac7a5e5920e218",
      "function": "approve(address,uint256)",
      "arguments": [
        "0x5C763aA7536BF5D67155553BD709Ca66187CDfDd",
        "115792089237316195423570985008687907853269984665640564039457584007913129639935"
      ],
      "transaction": {
        "from": "0x8e4a6f0866904d9edb6bb5e2cd56199eafadeea6",
        "to": "0x914bd84678abc7ace192ba0f27ac7a5e5920e218",
        "value": "0x0",
        "input": "0x095ea7b30000000000000000000000005c763aa7536bf5d67155553bd709ca66187cdfddffffffffffffffffffffffffffffffffffffffffffffffffffffffffffffffff",
        "nonce": "0x1c",
        "chainId": "0x14a34"
      },
      "additionalContracts": [],
      "isFixedGasLimit": false
    },
    {
      "hash": null,
      "transactionType": "CALL",
      "contractName": null,
      "contractAddress": "0x5c763aa7536bf5d67155553bd709ca66187cdfdd",
      "function": "deposit(uint256,address)",
      "arguments": [
        "1000000000",
        "0x8e4A6f0866904D9edB6bb5e2CD56199EAfadEEA6"
      ],
      "transaction": {
        "from": "0x8e4a6f0866904d9edb6bb5e2cd56199eafadeea6",
        "to": "0x5c763aa7536bf5d67155553bd709ca66187cdfdd",
        "value": "0x0",
        "input": "0x6e553f65000000000000000000000000000000000000000000000000000000003b9aca000000000000000000000000008e4a6f0866904d9edb6bb5e2cd56199eafadeea6",
        "nonce": "0x1d",
        "chainId": "0x14a34"
      },
      "additionalContracts": [],
      "isFixedGasLimit": false
    },
    {
      "hash": null,
      "transactionType": "CALL",
      "contractName": null,
      "contractAddress": "0x914bd84678abc7ace192ba0f27ac7a5e5920e218",
      "function": "approve(address,uint256)",
      "arguments": [
        "0xcf235aA8485bddCCB8d276a8AC97bD78521974ca",
        "50000000"
      ],
      "transaction": {
        "from": "0x8e4a6f0866904d9edb6bb5e2cd56199eafadeea6",
        "to": "0x914bd84678abc7ace192ba0f27ac7a5e5920e218",
        "value": "0x0",
        "input": "0x095ea7b3000000000000000000000000cf235aa8485bddccb8d276a8ac97bd78521974ca0000000000000000000000000000000000000000000000000000000002faf080",
        "nonce": "0x1e",
        "chainId": "0x14a34"
      },
      "additionalContracts": [],
      "isFixedGasLimit": false
    },
    {
      "hash": null,
      "transactionType": "CALL",
      "contractName": null,
      "contractAddress": "0xcf235aa8485bddccb8d276a8ac97bd78521974ca",
      "function": "addYield(address,uint256)",
      "arguments": [
        "0x914bD84678ABc7ace192ba0f27Ac7a5e5920e218",
        "50000000"
      ],
      "transaction": {
        "from": "0x8e4a6f0866904d9edb6bb5e2cd56199eafadeea6",
        "to": "0xcf235aa8485bddccb8d276a8ac97bd78521974ca",
        "value": "0x0",
        "input": "0x7ecb8bcf000000000000000000000000914bd84678abc7ace192ba0f27ac7a5e5920e2180000000000000000000000000000000000000000000000000000000002faf080",
        "nonce": "0x1f",
        "chainId": "0x14a34"
      },
      "additionalContracts": [],
      "isFixedGasLimit": false
    },
    {
      "hash": null,
      "transactionType": "CALL",
      "contractName": null,
      "contractAddress": "0x5c763aa7536bf5d67155553bd709ca66187cdfdd",
      "function": "redeem(uint256,address,address)",
      "arguments": [
        "500000000",
        "0x8e4A6f0866904D9edB6bb5e2CD56199EAfadEEA6",
        "0x8e4A6f0866904D9edB6bb5e2CD56199EAfadEEA6"
      ],
      "transaction": {
        "from": "0x8e4a6f0866904d9edb6bb5e2cd56199eafadeea6",
        "to": "0x5c763aa7536bf5d67155553bd709ca66187cdfdd",
        "value": "0x0",
        "input": "0xba087652000000000000000000000000000000000000000000000000000000001dcd65000000000000000000000000008e4a6f0866904d9edb6bb5e2cd56199eafadeea60000000000000000000000008e4a6f0866904d9edb6bb5e2cd56199eafadeea6",
        "nonce": "0x20",
        "chainId": "0x14a34"
      },
      "additionalContracts": [],
      "isFixedGasLimit": false
    }
  ],
  "receipts": [
    {
      "status": "0x1",
      "cumulativeGasUsed": "0x7c4bf5",
      "logs": [
        {
          "address": "0x7e069926a4cf1d6eaf6fa8823c91b356cdcc1b03",
          "topics": [
            "0x1832e62c1320bb8c3be301fb194df98a375f57bf29897fa15ce55b82911fa1bc",
            "0x0000000000000000000000008e4a6f0866904d9edb6bb5e2cd56199eafadeea6"
          ],
          "data": "0x",
          "blockHash": "0x0000000000000000000000000000000000000000000000000000000000000000",
          "blockNumber": "0x26cb6b1",
          "blockTimestamp": "0x69eccc42",
          "transactionHash": "0x176defee48630b5601a28486fbfcc3985e63228881bca3f900baeb2890f9ad11",
          "transactionIndex": "0x14",
          "logIndex": "0x123",
          "removed": false
        }
      ],
      "logsBloom": "0x00000000000000000020000000000000008000400000000000000000400400000000000040000000000000000000000000000000000000000000000000000000000000000000000000000000000000000000000000000000000000000000000000000000000000000000000000000000000000000000000000000000000000000000000000000000000000000000000000000000000000000000000000000000000000000000000000000000000000000000000000000000000000000000000000000000000000000000000000000020000000000000000000000000000000000004000000000000000000000000000000000000000000000000000000000800",
      "type": "0x2",
      "transactionHash": "0x176defee48630b5601a28486fbfcc3985e63228881bca3f900baeb2890f9ad11",
      "transactionIndex": "0x14",
      "blockHash": "0x0000000000000000000000000000000000000000000000000000000000000000",
      "blockNumber": "0x26cb6b1",
      "gasUsed": "0xb8bb",
      "effectiveGasPrice": "0x5b8d80",
      "blobGasUsed": "0x39d0",
      "from": "0x8e4a6f0866904d9edb6bb5e2cd56199eafadeea6",
      "to": "0x7e069926a4cf1d6eaf6fa8823c91b356cdcc1b03",
      "contractAddress": null,
      "daFootprintGasScalar": "0x94",
      "l1BaseFeeScalar": "0x44d",
      "l1BlobBaseFee": "0x161e4",
      "l1BlobBaseFeeScalar": "0xa118b",
      "l1Fee": "0xaa187a",
      "l1GasPrice": "0x15b309",
      "l1GasUsed": "0x640"
    },
    {
      "status": "0x1",
      "cumulativeGasUsed": "0x53afa4",
      "logs": [
        {
          "address": "0x4200000000000000000000000000000000000020",
          "topics": [
            "0xd0b86852e21f9e5fa4bc3b0cff9757ffe243d50c4b43968a42202153d651ea5e",
            "0x8e3fcc4eec08f17a5655bdb07d4a9fb55e961420591855e383bed48885d4e9da",
            "0x0000000000000000000000008e4a6f0866904d9edb6bb5e2cd56199eafadeea6"
          ],
          "data": "0x00000000000000000000000000000000000000000000000000000000000000208e3fcc4eec08f17a5655bdb07d4a9fb55e961420591855e383bed48885d4e9da0000000000000000000000000000000000000000000000000000000000000000000000000000000000000000000000000000000000000000000000000000000100000000000000000000000000000000000000000000000000000000000000800000000000000000000000000000000000000000000000000000000000000027626f6f6c206b79635061737365642c626f6f6c20616d6c436c6561722c75696e7438207469657200000000000000000000000000000000000000000000000000",
          "blockHash": "0x0000000000000000000000000000000000000000000000000000000000000000",
          "blockNumber": "0x26cb6b2",
          "blockTimestamp": "0x69eccc44",
          "transactionHash": "0x416b7827b081233dc13ac1267f91ff01120d24d504a8be71b2586087d6861cac",
          "transactionIndex": "0xc",
          "logIndex": "0xf2",
          "removed": false
        }
      ],
      "logsBloom": "0x00000000000000000000000000000000008000400000000000000000000800000000000000000000000000000000000000000000000000000000000000000000000000000000000000000000000000000000000000000000000000000000000000000008000000000000000000000000000000000000000000000000000000000000200000000000000000000000000080000000000000800000000000000000000001040000000010000000000000000000000000000000000000000000000000000000000000004000000000000000000000000000000000000000000000000000000000000000000000000000000000000000000000000000000000000800",
      "type": "0x2",
      "transactionHash": "0x416b7827b081233dc13ac1267f91ff01120d24d504a8be71b2586087d6861cac",
      "transactionIndex": "0xc",
      "blockHash": "0x0000000000000000000000000000000000000000000000000000000000000000",
      "blockNumber": "0x26cb6b2",
      "gasUsed": "0x23371",
      "effectiveGasPrice": "0x5b8d80",
      "blobGasUsed": "0x39d0",
      "from": "0x8e4a6f0866904d9edb6bb5e2cd56199eafadeea6",
      "to": "0x4200000000000000000000000000000000000020",
      "contractAddress": null,
      "daFootprintGasScalar": "0x94",
      "l1BaseFeeScalar": "0x44d",
      "l1BlobBaseFee": "0x161e4",
      "l1BlobBaseFeeScalar": "0xa118b",
      "l1Fee": "0x817142",
      "l1GasPrice": "0x15b309",
      "l1GasUsed": "0x640"
    },
    {
      "status": "0x1",
      "cumulativeGasUsed": "0x222fcd",
      "logs": [
        {
          "address": "0x7e069926a4cf1d6eaf6fa8823c91b356cdcc1b03",
          "topics": [
            "0x9fdfc4a79a40f32e29387cf31d7c2216715105026bcada349e161f790a2a61dd"
          ],
          "data": "0x8e3fcc4eec08f17a5655bdb07d4a9fb55e961420591855e383bed48885d4e9da",
          "blockHash": "0xf859d4a9de1c50f2fd4c2b8b553afbab74c1136893ebd049fea5aea77e1a40e6",
          "blockNumber": "0x26cb6b3",
          "blockTimestamp": "0x69eccc46",
          "transactionHash": "0xda3cbd42ae7f9b02cd38c2440c264d559105643f04a7e6b2a462d6cb99cddd62",
          "transactionIndex": "0x8",
          "logIndex": "0x4b",
          "removed": false
        }
      ],
      "logsBloom": "0x00000000000000000020000000000000000000000000000000000000400400000000000000000000000000000000000000000000000000000000000000000000000000000000000000000000000000040000000000000080000000000000000000000004000000000000000000000000000000000000000000000000000000000000000000000000000000000000000000000000000000000000000000000000000000000000000000000000000000000000000000000000000000000000000000000000000000000000000000000000000000000000000000000000000000000000000000000000000000000000000000000000000000000000000000000000",
      "type": "0x2",
      "transactionHash": "0xda3cbd42ae7f9b02cd38c2440c264d559105643f04a7e6b2a462d6cb99cddd62",
      "transactionIndex": "0x8",
      "blockHash": "0xf859d4a9de1c50f2fd4c2b8b553afbab74c1136893ebd049fea5aea77e1a40e6",
      "blockNumber": "0x26cb6b3",
      "gasUsed": "0xb7ef",
      "effectiveGasPrice": "0x5b8d80",
      "blobGasUsed": "0x39d0",
      "from": "0x8e4a6f0866904d9edb6bb5e2cd56199eafadeea6",
      "to": "0x7e069926a4cf1d6eaf6fa8823c91b356cdcc1b03",
      "contractAddress": null,
      "daFootprintGasScalar": "0x94",
      "l1BaseFeeScalar": "0x44d",
      "l1BlobBaseFee": "0x17a88",
      "l1BlobBaseFeeScalar": "0xa118b",
      "l1Fee": "0x881443",
      "l1GasPrice": "0x15dc87",
      "l1GasUsed": "0x640"
    },
    {
      "status": "0x1",
      "cumulativeGasUsed": "0x20bca2",
      "logs": [
        {
          "address": "0x4200000000000000000000000000000000000021",
          "topics": [
            "0x8bf46bf4cfd674fa735a3d63ec1c9ad4153f033c290341f3a588b75685141b35",
            "0x0000000000000000000000008e4a6f0866904d9edb6bb5e2cd56199eafadeea6",
            "0x0000000000000000000000008e4a6f0866904d9edb6bb5e2cd56199eafadeea6",
            "0x8e3fcc4eec08f17a5655bdb07d4a9fb55e961420591855e383bed48885d4e9da"
          ],
          "data": "0x5d9af4319a77d103efec4c75d490671ec5b668ad626e191ada5bcd7d5745ae31",
          "blockHash": "0x0000000000000000000000000000000000000000000000000000000000000000",
          "blockNumber": "0x26cb6b4",
          "blockTimestamp": "0x69eccc48",
          "transactionHash": "0x5ac2d24103b34cbf9d477bc75c36e33bf1969c7084a407a3aff40495947074c1",
          "transactionIndex": "0x8",
          "logIndex": "0x51",
          "removed": false
        }
      ],
      "logsBloom": "0x00000000000000000000000040000000008000400000000000000000000000000000000000000000000000000000000000000000000000000040000000000000000000000000000000000000000000000000000000000000000000000000000000000000000000000000000000000000000000000000002000000000000000000000200000000000000000000000000000000000000000000000000000000000000001000000000000000000000000000000000010000000000000000000000000000000000000004000000000000000000000000004000000000000000000000000000800000000000000000000000000000000000000000000000000000800",
      "type": "0x2",
      "transactionHash": "0x5ac2d24103b34cbf9d477bc75c36e33bf1969c7084a407a3aff40495947074c1",
      "transactionIndex": "0x8",
      "blockHash": "0x0000000000000000000000000000000000000000000000000000000000000000",
      "blockNumber": "0x26cb6b4",
      "gasUsed": "0x3f45b",
      "effectiveGasPrice": "0x5b8d80",
      "blobGasUsed": "0x4f34",
      "from": "0x8e4a6f0866904d9edb6bb5e2cd56199eafadeea6",
      "to": "0x4200000000000000000000000000000000000021",
      "contractAddress": null,
      "daFootprintGasScalar": "0x94",
      "l1BaseFeeScalar": "0x44d",
      "l1BlobBaseFee": "0x17a88",
      "l1BlobBaseFeeScalar": "0xa118b",
      "l1Fee": "0xbd0fba",
      "l1GasPrice": "0x15dc87",
      "l1GasUsed": "0x894"
    }
  ],
  "libraries": [],
  "pending": [],
  "returns": {},
  "timestamp": 1777126483146,
  "chain": 84532,
  "commit": "20d4341"
}