{
  "transactions": [
    {
      "hash": "0xe4af0db14b8d028902eb0eda4efd2ec6c4b204fee6daa19e3814b6864ad13c77",
      "transactionType": "CALL",
      "contractName": null,
      "contractAddress": "0x914bd84678abc7ace192ba0f27ac7a5e5920e218",
      "function": "mint(address,uint256)",
      "arguments": [
        "0x8e4A6f0866904D9edB6bb5e2CD56199EAfadEEA6",
        "10000000000"
      ],
      "transaction": {
        "from": "0x8e4a6f0866904d9edb6bb5e2cd56199eafadeea6",
        "to": "0x914bd84678abc7ace192ba0f27ac7a5e5920e218",
        "value": "0x0",
        "input": "0x40c10f190000000000000000000000008e4a6f0866904d9edb6bb5e2cd56199eafadeea600000000000000000000000000000000000000000000000000000002540be400",
        "nonce": "0x1c",
        "chainId": "0x14a34"
      },
      "additionalContracts": [],
      "isFixedGasLimit": false
    },
    {
      "hash": "0x076487a1822d3c2dca925bf5ba7bd8639134b7bb4d93a86d3525372a798883f4",
      "transactionType": "CALL",
      "contractName": null,
      "contractAddress": "0x914bd84678abc7ace192ba0f27ac7a5e5920e218",
      "function": "approve(address,uint256)",
      "arguments": [
        "0x5C763aA7536BF5D67155553BD709Ca66187CDfDd",
        "115792089237316195423570985008687907853269984665640564039457584007913129639935"
      ],
      "transaction": {
        "from": "0x8e4a6f0866904d9edb6bb5e2cd56199eafadeea6",
        "to": "0x914bd84678abc7ace192ba0f27ac7a5e5920e218",
        "value": "0x0",
        "input": "0x095ea7b30000000000000000000000005c763aa7536bf5d67155553bd709ca66187cdfddffffffffffffffffffffffffffffffffffffffffffffffffffffffffffffffff",
        "nonce": "0x1d",
        "chainId": "0x14a34"
      },
      "additionalContracts": [],
      "isFixedGasLimit": false
    },
    {
      "hash": "0x9ba26e9e501ae2d7060832a22aafecd2fed7892480933e38b822fc2ef39ee779",
      "transactionType": "CALL",
      "contractName": null,
      "contractAddress": "0x5c763aa7536bf5d67155553bd709ca66187cdfdd",
      "function": "deposit(uint256,address)",
      "arguments": [
        "1000000000",
        "0x8e4A6f0866904D9edB6bb5e2CD56199EAfadEEA6"
      ],
      "transaction": {
        "from": "0x8e4a6f0866904d9edb6bb5e2cd56199eafadeea6",
        "to": "0x5c763aa7536bf5d67155553bd709ca66187cdfdd",
        "value": "0x0",
        "input": "0x6e553f65000000000000000000000000000000000000000000000000000000003b9aca000000000000000000000000008e4a6f0866904d9edb6bb5e2cd56199eafadeea6",
        "nonce": "0x1e",
        "chainId": "0x14a34"
      },
      "additionalContracts": [],
      "isFixedGasLimit": false
    },
    {
      "hash": "0xd4d91d3f2b65651abba8a0833b5a8b7415396553b7f0d7d0bf5321aba2997e57",
      "transactionType": "CALL",
      "contractName": null,
      "contractAddress": "0x914bd84678abc7ace192ba0f27ac7a5e5920e218",
      "function": "approve(address,uint256)",
      "arguments": [
        "0xcf235aA8485bddCCB8d276a8AC97bD78521974ca",
        "50000000"
      ],
      "transaction": {
        "from": "0x8e4a6f0866904d9edb6bb5e2cd56199eafadeea6",
        "to": "0x914bd84678abc7ace192ba0f27ac7a5e5920e218",
        "value": "0x0",
        "input": "0x095ea7b3000000000000000000000000cf235aa8485bddccb8d276a8ac97bd78521974ca0000000000000000000000000000000000000000000000000000000002faf080",
        "nonce": "0x1f",
        "chainId": "0x14a34"
      },
      "additionalContracts": [],
      "isFixedGasLimit": false
    },
    {
      "hash": "0x9b63a6ae58297d1d48d6cb47644d6cae057c77aa87a238023572a74d394932a5",
      "transactionType": "CALL",
      "contractName": null,
      "contractAddress": "0xcf235aa8485bddccb8d276a8ac97bd78521974ca",
      "function": "addYield(address,uint256)",
      "arguments": [
        "0x914bD84678ABc7ace192ba0f27Ac7a5e5920e218",
        "50000000"
      ],
      "transaction": {
        "from": "0x8e4a6f0866904d9edb6bb5e2cd56199eafadeea6",
        "to": "0xcf235aa8485bddccb8d276a8ac97bd78521974ca",
        "value": "0x0",
        "input": "0x7ecb8bcf000000000000000000000000914bd84678abc7ace192ba0f27ac7a5e5920e2180000000000000000000000000000000000000000000000000000000002faf080",
        "nonce": "0x20",
        "chainId": "0x14a34"
      },
      "additionalContracts": [],
      "isFixedGasLimit": false
    },
    {
      "hash": "0xe692b5c6b5df92488c9233ebaf8f440d9a291ede8841bfc73c330458bd5205af",
      "transactionType": "CALL",
      "contractName": null,
      "contractAddress": "0x5c763aa7536bf5d67155553bd709ca66187cdfdd",
      "function": "redeem(uint256,address,address)",
      "arguments": [
        "500000000",
        "0x8e4A6f0866904D9edB6bb5e2CD56199EAfadEEA6",
        "0x8e4A6f0866904D9edB6bb5e2CD56199EAfadEEA6"
      ],
      "transaction": {
        "from": "0x8e4a6f0866904d9edb6bb5e2cd56199eafadeea6",
        "to": "0x5c763aa7536bf5d67155553bd709ca66187cdfdd",
        "value": "0x0",
        "input": "0xba087652000000000000000000000000000000000000000000000000000000001dcd65000000000000000000000000008e4a6f0866904d9edb6bb5e2cd56199eafadeea60000000000000000000000008e4a6f0866904d9edb6bb5e2cd56199eafadeea6",
        "nonce": "0x21",
        "chainId": "0x14a34"
      },
      "additionalContracts": [],
      "isFixedGasLimit": false
    }
  ],
  "receipts": [
    {
      "status": "0x1",
      "cumulativeGasUsed": "0x316648",
      "logs": [
        {
          "address": "0x914bd84678abc7ace192ba0f27ac7a5e5920e218",
          "topics": [
            "0xddf252ad1be2c89b69c2b068fc378daa952ba7f163c4a11628f55a4df523b3ef",
            "0x0000000000000000000000000000000000000000000000000000000000000000",
            "0x0000000000000000000000008e4a6f0866904d9edb6bb5e2cd56199eafadeea6"
          ],
          "data": "0x00000000000000000000000000000000000000000000000000000002540be400",
          "blockHash": "0x0000000000000000000000000000000000000000000000000000000000000000",
          "blockNumber": "0x26cb778",
          "blockTimestamp": "0x69eccdd0",
          "transactionHash": "0xe4af0db14b8d028902eb0eda4efd2ec6c4b204fee6daa19e3814b6864ad13c77",
          "transactionIndex": "0xc",
          "logIndex": "0x89",
          "removed": false
        }
      ],
      "logsBloom": "0x00000000000000000000000000000000008000400000000000000000000000000000000000000000000000000000000000000000000000000000000000000000000000000000000000000008000000000000000000000000000000000000000000000200020000000000008000000800000000000000000000000018000000000000000000000000000000000000000000000000000000000000000000000000000000000000000000000000000000000000000000000000000000000000000000000002000000000000000000000000000000000000000000000000000020000000000000000000000000000000000000000000000000000000000000000800",
      "type": "0x2",
      "transactionHash": "0xe4af0db14b8d028902eb0eda4efd2ec6c4b204fee6daa19e3814b6864ad13c77",
      "transactionIndex": "0xc",
      "blockHash": "0x0000000000000000000000000000000000000000000000000000000000000000",
      "blockNumber": "0x26cb778",
      "gasUsed": "0x84a1",
      "effectiveGasPrice": "0x5b8d80",
      "blobGasUsed": "0x39d0",
      "from": "0x8e4a6f0866904d9edb6bb5e2cd56199eafadeea6",
      "to": "0x914bd84678abc7ace192ba0f27ac7a5e5920e218",
      "contractAddress": null,
      "daFootprintGasScalar": "0x94",
      "l1BaseFeeScalar": "0x44d",
      "l1BlobBaseFee": "0x1764f",
      "l1BlobBaseFeeScalar": "0xa118b",
      "l1Fee": "0x2e9db8c",
      "l1GasPrice": "0x184ea2",
      "l1GasUsed": "0x640"
    },
    {
      "status": "0x1",
      "cumulativeGasUsed": "0x7976d9",
      "logs": [
        {
          "address": "0x914bd84678abc7ace192ba0f27ac7a5e5920e218",
          "topics": [
            "0x8c5be1e5ebec7d5bd14f71427d1e84f3dd0314c0f7b2291e5b200ac8c7c3b925",
            "0x0000000000000000000000008e4a6f0866904d9edb6bb5e2cd56199eafadeea6",
            "0x0000000000000000000000005c763aa7536bf5d67155553bd709ca66187cdfdd"
          ],
          "data": "0xffffffffffffffffffffffffffffffffffffffffffffffffffffffffffffffff",
          "blockHash": "0x0000000000000000000000000000000000000000000000000000000000000000",
          "blockNumber": "0x26cb779",
          "blockTimestamp": "0x69eccdd2",
          "transactionHash": "0x076487a1822d3c2dca925bf5ba7bd8639134b7bb4d93a86d3525372a798883f4",
          "transactionIndex": "0x10",
          "logIndex": "0xda",
          "removed": false
        }
      ],
      "logsBloom": "0x00000000000000000000000000000000008000400000000000000000200000000000000000000000000000000000000000000000000000000000000000200000000000000000000000000000000000000000000000000000000000000000000000000200000000000000008000000000000000000000000000000008000000000000000000000000000000000000000000000000000000000000800000000000020000000000000000000000000000000000000000000000000000000000000000000000000000000000000000000000000000000000000000000000000000000010000000000000000000000000000000000010000000000000000000000800",
      "type": "0x2",
      "transactionHash": "0x076487a1822d3c2dca925bf5ba7bd8639134b7bb4d93a86d3525372a798883f4",
      "transactionIndex": "0x10",
      "blockHash": "0x0000000000000000000000000000000000000000000000000000000000000000",
      "blockNumber": "0x26cb779",
      "gasUsed": "0xb4ad",
      "effectiveGasPrice": "0x5b8d80",
      "blobGasUsed": "0x39d0",
      "from": "0x8e4a6f0866904d9edb6bb5e2cd56199eafadeea6",
      "to": "0x914bd84678abc7ace192ba0f27ac7a5e5920e218",
      "contractAddress": null,
      "daFootprintGasScalar": "0x94",
      "l1BaseFeeScalar": "0x44d",
      "l1BlobBaseFee": "0x1791e",
      "l1BlobBaseFeeScalar": "0xa118b",
      "l1Fee": "0x2f9608a",
      "l1GasPrice": "0x19cb6a",
      "l1GasUsed": "0x640"
    },
    {
      "status": "0x1",
      "cumulativeGasUsed": "0x3a7986",
      "logs": [
        {
          "address": "0x914bd84678abc7ace192ba0f27ac7a5e5920e218",
          "topics": [
            "0xddf252ad1be2c89b69c2b068fc378daa952ba7f163c4a11628f55a4df523b3ef",
            "0x0000000000000000000000008e4a6f0866904d9edb6bb5e2cd56199eafadeea6",
            "0x0000000000000000000000005c763aa7536bf5d67155553bd709ca66187cdfdd"
          ],
          "data": "0x000000000000000000000000000000000000000000000000000000003b9aca00",
          "blockHash": "0x0000000000000000000000000000000000000000000000000000000000000000",
          "blockNumber": "0x26cb77a",
          "blockTimestamp": "0x69eccdd4",
          "transactionHash": "0x9ba26e9e501ae2d7060832a22aafecd2fed7892480933e38b822fc2ef39ee779",
          "transactionIndex": "0x9",
          "logIndex": "0x60",
          "removed": false
        },
        {
          "address": "0x914bd84678abc7ace192ba0f27ac7a5e5920e218",
          "topics": [
            "0xddf252ad1be2c89b69c2b068fc378daa952ba7f163c4a11628f55a4df523b3ef",
            "0x0000000000000000000000005c763aa7536bf5d67155553bd709ca66187cdfdd",
            "0x000000000000000000000000cf235aa8485bddccb8d276a8ac97bd78521974ca"
          ],
          "data": "0x000000000000000000000000000000000000000000000000000000003b9aca00",
          "blockHash": "0x0000000000000000000000000000000000000000000000000000000000000000",
          "blockNumber": "0x26cb77a",
          "blockTimestamp": "0x69eccdd4",
          "transactionHash": "0x9ba26e9e501ae2d7060832a22aafecd2fed7892480933e38b822fc2ef39ee779",
          "transactionIndex": "0x9",
          "logIndex": "0x61",
          "removed": false
        },
        {
          "address": "0x5c763aa7536bf5d67155553bd709ca66187cdfdd",
          "topics": [
            "0xddf252ad1be2c89b69c2b068fc378daa952ba7f163c4a11628f55a4df523b3ef",
            "0x0000000000000000000000000000000000000000000000000000000000000000",
            "0x0000000000000000000000008e4a6f0866904d9edb6bb5e2cd56199eafadeea6"
          ],
          "data": "0x000000000000000000000000000000000000000000000000000000003b9aca00",
          "blockHash": "0x0000000000000000000000000000000000000000000000000000000000000000",
          "blockNumber": "0x26cb77a",
          "blockTimestamp": "0x69eccdd4",
          "transactionHash": "0x9ba26e9e501ae2d7060832a22aafecd2fed7892480933e38b822fc2ef39ee779",
          "transactionIndex": "0x9",
          "logIndex": "0x62",
          "removed": false
        },
        {
          "address": "0xeba8c8720cc1fa0ac51be9f618ebee9d1ecfbc3f",
          "topics": [
            "0xca7b0799c2d5d6426b3acee9b38a5097d47bf400d836961c2d90472a85ab35fe",
            "0x0000000000000000000000008e4a6f0866904d9edb6bb5e2cd56199eafadeea6"
          ],
          "data": "0x000000000000000000000000000000000000000000000000000000003b9aca00000000000000000000000000000000000000000000000000000000003b9aca00",
          "blockHash": "0x0000000000000000000000000000000000000000000000000000000000000000",
          "blockNumber": "0x26cb77a",
          "blockTimestamp": "0x69eccdd4",
          "transactionHash": "0x9ba26e9e501ae2d7060832a22aafecd2fed7892480933e38b822fc2ef39ee779",
          "transactionIndex": "0x9",
          "logIndex": "0x63",
          "removed": false
        },
        {
          "address": "0x5c763aa7536bf5d67155553bd709ca66187cdfdd",
          "topics": [
            "0xdcbc1c05240f31ff3ad067ef1ee35ce4997762752e3a095284754544f4c709d7",
            "0x0000000000000000000000008e4a6f0866904d9edb6bb5e2cd56199eafadeea6",
            "0x0000000000000000000000008e4a6f0866904d9edb6bb5e2cd56199eafadeea6"
          ],
          "data": "0x000000000000000000000000000000000000000000000000000000003b9aca00000000000000000000000000000000000000000000000000000000003b9aca00",
          "blockHash": "0x0000000000000000000000000000000000000000000000000000000000000000",
          "blockNumber": "0x26cb77a",
          "blockTimestamp": "0x69eccdd4",
          "transactionHash": "0x9ba26e9e501ae2d7060832a22aafecd2fed7892480933e38b822fc2ef39ee779",
          "transactionIndex": "0x9",
          "logIndex": "0x64",
          "removed": false
        }
      ],
      "logsBloom": "0x00000000001000000000000000100000008000400000000000000000200000000008000000000000000000000000000000000000000000000000000000000000040000400000000000000008000000000010000000000000000000000000000000000200020000000000008000000800000000000004000000000118000000000000000000000000001000000000000000000000080000000000800000000000000000000000000000000000080000000000000000000000040000000000000000000002000000000000000000000000000000000008000000000000000020000000000000000000000800000000000000000010000000000000000000000800",
      "type": "0x2",
      "transactionHash": "0x9ba26e9e501ae2d7060832a22aafecd2fed7892480933e38b822fc2ef39ee779",
      "transactionIndex": "0x9",
      "blockHash": "0x0000000000000000000000000000000000000000000000000000000000000000",
      "blockNumber": "0x26cb77a",
      "gasUsed": "0x52d98",
      "effectiveGasPrice": "0x5b8d80",
      "blobGasUsed": "0x39d0",
      "from": "0x8e4a6f0866904d9edb6bb5e2cd56199eafadeea6",
      "to": "0x5c763aa7536bf5d67155553bd709ca66187cdfdd",
      "contractAddress": null,
      "daFootprintGasScalar": "0x94",
      "l1BaseFeeScalar": "0x44d",
      "l1BlobBaseFee": "0x1791e",
      "l1BlobBaseFeeScalar": "0xa118b",
      "l1Fee": "0xbf05a7",
      "l1GasPrice": "0x19cb6a",
      "l1GasUsed": "0x640"
    },
    {
      "status": "0x1",
      "cumulativeGasUsed": "0x4cc314",
      "logs": [
        {
          "address": "0x914bd84678abc7ace192ba0f27ac7a5e5920e218",
          "topics": [
            "0x8c5be1e5ebec7d5bd14f71427d1e84f3dd0314c0f7b2291e5b200ac8c7c3b925",
            "0x0000000000000000000000008e4a6f0866904d9edb6bb5e2cd56199eafadeea6",
            "0x000000000000000000000000cf235aa8485bddccb8d276a8ac97bd78521974ca"
          ],
          "data": "0x0000000000000000000000000000000000000000000000000000000002faf080",
          "blockHash": "0xb1d8b154581d3393f31efff95050ff3ca1d7dbc06b2744a438330346a043b6a5",
          "blockNumber": "0x26cb77b",
          "blockTimestamp": "0x69eccdd6",
          "transactionHash": "0xd4d91d3f2b65651abba8a0833b5a8b7415396553b7f0d7d0bf5321aba2997e57",
          "transactionIndex": "0xd",
          "logIndex": "0xf7",
          "removed": false
        }
      ],
      "logsBloom": "0x00000000001000000000000000000000008000400000000000000000000000000008000000000000000000000000000000000000000000000000000000200000000000000000000000000000000000000000000000000000000000000000000000000200000000000000008000000000000000000000000000000008000000000000000000000000000000000000000000000000000000000000000000000000020000000000000000000000000000000000000000000000000000000000000000000002000000000000000000000000000000000000000000000000000000000010000000000000000000000000000000000000000000000000000000000800",
      "type": "0x2",
      "transactionHash": "0xd4d91d3f2b65651abba8a0833b5a8b7415396553b7f0d7d0bf5321aba2997e57",
      "transactionIndex": "0xd",
      "blockHash": "0xb1d8b154581d3393f31efff95050ff3ca1d7dbc06b2744a438330346a043b6a5",
      "blockNumber": "0x26cb77b",
      "gasUsed": "0xb35d",
      "effectiveGasPrice": "0x5b8d80",
      "blobGasUsed": "0x39d0",
      "from": "0x8e4a6f0866904d9edb6bb5e2cd56199eafadeea6",
      "to": "0x914bd84678abc7ace192ba0f27ac7a5e5920e218",
      "contractAddress": null,
      "daFootprintGasScalar": "0x94",
      "l1BaseFeeScalar": "0x44d",
      "l1BlobBaseFee": "0x1791e",
      "l1BlobBaseFeeScalar": "0xa118b",
      "l1Fee": "0x8ea4b0",
      "l1GasPrice": "0x19cb6a",
      "l1GasUsed": "0x640"
    },
    {
      "status": "0x1",
      "cumulativeGasUsed": "0x458e39",
      "logs": [
        {
          "address": "0x914bd84678abc7ace192ba0f27ac7a5e5920e218",
          "topics": [
            "0xddf252ad1be2c89b69c2b068fc378daa952ba7f163c4a11628f55a4df523b3ef",
            "0x0000000000000000000000008e4a6f0866904d9edb6bb5e2cd56199eafadeea6",
            "0x000000000000000000000000cf235aa8485bddccb8d276a8ac97bd78521974ca"
          ],
          "data": "0x0000000000000000000000000000000000000000000000000000000002faf080",
          "blockHash": "0x8cf7e17c9bd13b8e138afe9fe5616bc1cf20185a02215e4fa97d045e851e86fe",
          "blockNumber": "0x26cb77c",
          "blockTimestamp": "0x69eccdd8",
          "transactionHash": "0x9b63a6ae58297d1d48d6cb47644d6cae057c77aa87a238023572a74d394932a5",
          "transactionIndex": "0xc",
          "logIndex": "0xd1",
          "removed": false
        }
      ],
      "logsBloom": "0x00000000001000000000000000000000008000400000000000000000000000000008000000000000000000000000000000000000000000000000000000000000000000000000000000000008000000000000000000000000000000000000000000000200000000000000008000000000000000000000000000000018000000000000000000000000000000000000000000000000000000000000000000000000000000000000000000000000000000000000000000000000000000000000000000000002000000000000000000000000000000000000000000000000000000000000000000000000000000000000000000000000000000000000000000000800",
      "type": "0x2",
      "transactionHash": "0x9b63a6ae58297d1d48d6cb47644d6cae057c77aa87a238023572a74d394932a5",
      "transactionIndex": "0xc",
      "blockHash": "0x8cf7e17c9bd13b8e138afe9fe5616bc1cf20185a02215e4fa97d045e851e86fe",
      "blockNumber": "0x26cb77c",
      "gasUsed": "0x10207",
      "effectiveGasPrice": "0x5b8d80",
      "blobGasUsed": "0x39d0",
      "from": "0x8e4a6f0866904d9edb6bb5e2cd56199eafadeea6",
      "to": "0xcf235aa8485bddccb8d276a8ac97bd78521974ca",
      "contractAddress": null,
      "daFootprintGasScalar": "0x94",
      "l1BaseFeeScalar": "0x44d",
      "l1BlobBaseFee": "0x1791e",
      "l1BlobBaseFeeScalar": "0xa118b",
      "l1Fee": "0x8ea4b0",
      "l1GasPrice": "0x19cb6a",
      "l1GasUsed": "0x640"
    },
    {
      "status": "0x1",
      "cumulativeGasUsed": "0x333838",
      "logs": [
        {
          "address": "0x5c763aa7536bf5d67155553bd709ca66187cdfdd",
          "topics": [
            "0xddf252ad1be2c89b69c2b068fc378daa952ba7f163c4a11628f55a4df523b3ef",
            "0x0000000000000000000000000000000000000000000000000000000000000000",
            "0x0000000000000000000000008e4a6f0866904d9edb6bb5e2cd56199eafadeea6"
          ],
          "data": "0x00000000000000000000000000000000000000000000000000000000006dc684",
          "blockHash": "0x71c8655339db2d0099c3fae488b810cc61c36a7f6513841bceed46d60eac7fbb",
          "blockNumber": "0x26cb77d",
          "blockTimestamp": "0x69eccdda",
          "transactionHash": "0xe692b5c6b5df92488c9233ebaf8f440d9a291ede8841bfc73c330458bd5205af",
          "transactionIndex": "0x7",
          "logIndex": "0x6e",
          "removed": false
        },
        {
          "address": "0x5c763aa7536bf5d67155553bd709ca66187cdfdd",
          "topics": [
            "0x3f0efd667efe2a4e661231bb42b65ce017c3326fb50d12aa6f936500d58c1c02"
          ],
          "data": "0x0000000000000000000000000000000000000000000000000000000002faf08000000000000000000000000000000000000000000000000000000000007270e000000000000000000000000000000000000000000000000000000000006dc684",
          "blockHash": "0x71c8655339db2d0099c3fae488b810cc61c36a7f6513841bceed46d60eac7fbb",
          "blockNumber": "0x26cb77d",
          "blockTimestamp": "0x69eccdda",
          "transactionHash": "0xe692b5c6b5df92488c9233ebaf8f440d9a291ede8841bfc73c330458bd5205af",
          "transactionIndex": "0x7",
          "logIndex": "0x6f",
          "removed": false
        },
        {
          "address": "0x5c763aa7536bf5d67155553bd709ca66187cdfdd",
          "topics": [
            "0xddf252ad1be2c89b69c2b068fc378daa952ba7f163c4a11628f55a4df523b3ef",
            "0x0000000000000000000000008e4a6f0866904d9edb6bb5e2cd56199eafadeea6",
            "0x0000000000000000000000000000000000000000000000000000000000000000"
          ],
          "data": "0x000000000000000000000000000000000000000000000000000000001dcd6500",
          "blockHash": "0x71c8655339db2d0099c3fae488b810cc61c36a7f6513841bceed46d60eac7fbb",
          "blockNumber": "0x26cb77d",
          "blockTimestamp": "0x69eccdda",
          "transactionHash": "0xe692b5c6b5df92488c9233ebaf8f440d9a291ede8841bfc73c330458bd5205af",
          "transactionIndex": "0x7",
          "logIndex": "0x70",
          "removed": false
        },
        {
          "address": "0xeba8c8720cc1fa0ac51be9f618ebee9d1ecfbc3f",
          "topics": [
            "0xca7b0799c2d5d6426b3acee9b38a5097d47bf400d836961c2d90472a85ab35fe",
            "0x0000000000000000000000008e4a6f0866904d9edb6bb5e2cd56199eafadeea6"
          ],
          "data": "0x000000000000000000000000000000000000000000000000000000001dcd6500000000000000000000000000000000000000000000000000000000001dcd6500",
          "blockHash": "0x71c8655339db2d0099c3fae488b810cc61c36a7f6513841bceed46d60eac7fbb",
          "blockNumber": "0x26cb77d",
          "blockTimestamp": "0x69eccdda",
          "transactionHash": "0xe692b5c6b5df92488c9233ebaf8f440d9a291ede8841bfc73c330458bd5205af",
          "transactionIndex": "0x7",
          "logIndex": "0x71",
          "removed": false
        },
        {
          "address": "0x914bd84678abc7ace192ba0f27ac7a5e5920e218",
          "topics": [
            "0xddf252ad1be2c89b69c2b068fc378daa952ba7f163c4a11628f55a4df523b3ef",
            "0x000000000000000000000000cf235aa8485bddccb8d276a8ac97bd78521974ca",
            "0x0000000000000000000000005c763aa7536bf5d67155553bd709ca66187cdfdd"
          ],
          "data": "0x000000000000000000000000000000000000000000000000000000001f11a4d0",
          "blockHash": "0x71c8655339db2d0099c3fae488b810cc61c36a7f6513841bceed46d60eac7fbb",
          "blockNumber": "0x26cb77d",
          "blockTimestamp": "0x69eccdda",
          "transactionHash": "0xe692b5c6b5df92488c9233ebaf8f440d9a291ede8841bfc73c330458bd5205af",
          "transactionIndex": "0x7",
          "logIndex": "0x72",
          "removed": false
        },
        {
          "address": "0x914bd84678abc7ace192ba0f27ac7a5e5920e218",
          "topics": [
            "0xddf252ad1be2c89b69c2b068fc378daa952ba7f163c4a11628f55a4df523b3ef",
            "0x0000000000000000000000005c763aa7536bf5d67155553bd709ca66187cdfdd",
            "0x0000000000000000000000008e4a6f0866904d9edb6bb5e2cd56199eafadeea6"
          ],
          "data": "0x000000000000000000000000000000000000000000000000000000001f11a4d0",
          "blockHash": "0x71c8655339db2d0099c3fae488b810cc61c36a7f6513841bceed46d60eac7fbb",
          "blockNumber": "0x26cb77d",
          "blockTimestamp": "0x69eccdda",
          "transactionHash": "0xe692b5c6b5df92488c9233ebaf8f440d9a291ede8841bfc73c330458bd5205af",
          "transactionIndex": "0x7",
          "logIndex": "0x73",
          "removed": false
        },
        {
          "address": "0x5c763aa7536bf5d67155553bd709ca66187cdfdd",
          "topics": [
            "0xfbde797d201c681b91056529119e0b02407c7bb96a4a2c75c01fc9667232c8db",
            "0x0000000000000000000000008e4a6f0866904d9edb6bb5e2cd56199eafadeea6",
            "0x0000000000000000000000008e4a6f0866904d9edb6bb5e2cd56199eafadeea6",
            "0x0000000000000000000000008e4a6f0866904d9edb6bb5e2cd56199eafadeea6"
          ],
          "data": "0x000000000000000000000000000000000000000000000000000000001f11a4d0000000000000000000000000000000000000000000000000000000001dcd6500",
          "blockHash": "0x71c8655339db2d0099c3fae488b810cc61c36a7f6513841bceed46d60eac7fbb",
          "blockNumber": "0x26cb77d",
          "blockTimestamp": "0x69eccdda",
          "transactionHash": "0xe692b5c6b5df92488c9233ebaf8f440d9a291ede8841bfc73c330458bd5205af",
          "transactionIndex": "0x7",
          "logIndex": "0x74",
          "removed": false
        }
      ],
      "logsBloom": "0x00000400001000400000000000100000008000400000000000000000200000000008000000000000000000000000000000000000000000000000000000000000040000000000000000000008000000000010000000000000000000000000000000000200020000000000008000000800000000000000000000000118000000000000000000000000001000000000000000000000080000000000800000000000000000000000000040000000080000020020000000000000040000000000000000000002000000000000000000000000000000000000000000000000000020000000000000000000000800000000000000000010000000000000000000000800",
      "type": "0x2",
      "transactionHash": "0xe692b5c6b5df92488c9233ebaf8f440d9a291ede8841bfc73c330458bd5205af",
      "transactionIndex": "0x7",
      "blockHash": "0x71c8655339db2d0099c3fae488b810cc61c36a7f6513841bceed46d60eac7fbb",
      "blockNumber": "0x26cb77d",
      "gasUsed": "0x37801",
      "effectiveGasPrice": "0x5b8d80",
      "blobGasUsed": "0x39d0",
      "from": "0x8e4a6f0866904d9edb6bb5e2cd56199eafadeea6",
      "to": "0x5c763aa7536bf5d67155553bd709ca66187cdfdd",
      "contractAddress": null,
      "daFootprintGasScalar": "0x94",
      "l1BaseFeeScalar": "0x44d",
      "l1BlobBaseFee": "0x1791e",
      "l1BlobBaseFeeScalar": "0xa118b",
      "l1Fee": "0x8ea4b0",
      "l1GasPrice": "0x19cb6a",
      "l1GasUsed": "0x640"
    }
  ],
  "libraries": [],
  "pending": [],
  "returns": {},
  "timestamp": 1777126874317,
  "chain": 84532,
  "commit": "20d4341"
}